{
  "_format": "hh-sol-artifact-1",
  "contractName": "NameRegistry",
  "sourceName": "contracts/NameRegistry.sol",
  "abi": [
    {
      "inputs": [
        {
          "internalType": "string",
          "name": "_name",
          "type": "string"
        },
        {
          "internalType": "string",
          "name": "_symbol",
          "type": "string"
        }
      ],
      "stateMutability": "nonpayable",
      "type": "constructor"
    },
    {
      "anonymous": false,
      "inputs": [
        {
          "indexed": true,
          "internalType": "address",
          "name": "owner",
          "type": "address"
        },
        {
          "indexed": true,
          "internalType": "address",
          "name": "approved",
          "type": "address"
        },
        {
          "indexed": true,
          "internalType": "uint256",
          "name": "tokenId",
          "type": "uint256"
        }
      ],
      "name": "Approval",
      "type": "event"
    },
    {
      "anonymous": false,
      "inputs": [
        {
          "indexed": true,
          "internalType": "address",
          "name": "owner",
          "type": "address"
        },
        {
          "indexed": true,
          "internalType": "address",
          "name": "operator",
          "type": "address"
        },
        {
          "indexed": false,
          "internalType": "bool",
          "name": "approved",
          "type": "bool"
        }
      ],
      "name": "ApprovalForAll",
      "type": "event"
    },
    {
      "anonymous": false,
      "inputs": [
        {
          "indexed": true,
          "internalType": "address",
          "name": "owner",
          "type": "address"
        },
        {
          "indexed": false,
          "internalType": "string",
          "name": "name",
          "type": "string"
        },
        {
          "indexed": false,
          "internalType": "uint256",
          "name": "expiryTimestamp",
          "type": "uint256"
        }
      ],
      "name": "NameRegistered",
      "type": "event"
    },
    {
      "anonymous": false,
      "inputs": [
        {
          "indexed": true,
          "internalType": "address",
          "name": "owner",
          "type": "address"
        },
        {
          "indexed": false,
          "internalType": "string",
          "name": "name",
          "type": "string"
        },
        {
          "indexed": false,
          "internalType": "uint256",
          "name": "newExpiryTimestamp",
          "type": "uint256"
        }
      ],
      "name": "NameRenewed",
      "type": "event"
    },
    {
      "anonymous": false,
      "inputs": [
        {
          "indexed": true,
          "internalType": "address",
          "name": "from",
          "type": "address"
        },
        {
          "indexed": true,
          "internalType": "address",
          "name": "to",
          "type": "address"
        },
        {
          "indexed": false,
          "internalType": "string",
          "name": "name",
          "type": "string"
        }
      ],
      "name": "NameTransferred",
      "type": "event"
    },
    {
      "anonymous": false,
      "inputs": [
        {
          "indexed": true,
          "internalType": "address",
          "name": "previousOwner",
          "type": "address"
        },
        {
          "indexed": true,
          "internalType": "address",
          "name": "newOwner",
          "type": "address"
        }
      ],
      "name": "OwnershipTransferred",
      "type": "event"
    },
    {
      "anonymous": false,
      "inputs": [
        {
          "indexed": false,
          "internalType": "uint256",
          "name": "newPrice",
          "type": "uint256"
        }
      ],
      "name": "RegistrationPriceChanged",
      "type": "event"
    },
    {
      "anonymous": false,
      "inputs": [
        {
          "indexed": true,
          "internalType": "address",
          "name": "from",
          "type": "address"
        },
        {
          "indexed": true,
          "internalType": "address",
          "name": "to",
          "type": "address"
        },
        {
          "indexed": true,
          "internalType": "uint256",
          "name": "tokenId",
          "type": "uint256"
        }
      ],
      "name": "Transfer",
      "type": "event"
    },
    {
      "anonymous": false,
      "inputs": [
        {
          "indexed": false,
          "internalType": "uint256",
          "name": "newPrice",
          "type": "uint256"
        }
      ],
      "name": "TransferPriceChanged",
      "type": "event"
    },
    {
      "inputs": [
        {
          "internalType": "address",
          "name": "addr",
          "type": "address"
        }
      ],
      "name": "Registered",
      "outputs": [
        {
          "internalType": "bool",
          "name": "",
          "type": "bool"
        }
      ],
      "stateMutability": "view",
      "type": "function"
    },
    {
      "inputs": [
        {
          "internalType": "address",
          "name": "to",
          "type": "address"
        },
        {
          "internalType": "uint256",
          "name": "tokenId",
          "type": "uint256"
        }
      ],
      "name": "approve",
      "outputs": [],
      "stateMutability": "nonpayable",
      "type": "function"
    },
    {
      "inputs": [
        {
          "internalType": "address",
          "name": "owner",
          "type": "address"
        }
      ],
      "name": "balanceOf",
      "outputs": [
        {
          "internalType": "uint256",
          "name": "",
          "type": "uint256"
        }
      ],
      "stateMutability": "view",
      "type": "function"
    },
    {
      "inputs": [],
      "name": "baseRegistrationPrice",
      "outputs": [
        {
          "internalType": "uint256",
          "name": "",
          "type": "uint256"
        }
      ],
      "stateMutability": "view",
      "type": "function"
    },
    {
      "inputs": [
        {
          "internalType": "string",
          "name": "name",
          "type": "string"
        },
        {
          "internalType": "uint256",
          "name": "numYears",
          "type": "uint256"
        }
      ],
      "name": "extendDuration",
      "outputs": [],
      "stateMutability": "payable",
      "type": "function"
    },
    {
      "inputs": [],
      "name": "getAllRegisteredAddresses",
      "outputs": [
        {
          "internalType": "address[]",
          "name": "",
          "type": "address[]"
        }
      ],
      "stateMutability": "view",
      "type": "function"
    },
    {
      "inputs": [
        {
          "internalType": "uint256",
          "name": "tokenId",
          "type": "uint256"
        }
      ],
      "name": "getApproved",
      "outputs": [
        {
          "internalType": "address",
          "name": "",
          "type": "address"
        }
      ],
      "stateMutability": "view",
      "type": "function"
    },
    {
      "inputs": [
        {
          "internalType": "string",
          "name": "name",
          "type": "string"
        },
        {
          "internalType": "uint256",
          "name": "numYears",
          "type": "uint256"
        }
      ],
      "name": "getExtensionPrice",
      "outputs": [
        {
          "internalType": "uint256",
          "name": "",
          "type": "uint256"
        }
      ],
      "stateMutability": "view",
      "type": "function"
    },
    {
      "inputs": [
        {
          "internalType": "address",
          "name": "addr",
          "type": "address"
        }
      ],
      "name": "getNameByAddress",
      "outputs": [
        {
          "internalType": "string",
          "name": "nameValue",
          "type": "string"
        },
        {
          "internalType": "uint256",
          "name": "creationTimestamp",
          "type": "uint256"
        },
        {
          "internalType": "uint256",
          "name": "registrationPrice",
          "type": "uint256"
        },
        {
          "internalType": "uint256",
          "name": "expiryTimestamp",
          "type": "uint256"
        },
        {
          "internalType": "string",
          "name": "tokenURIValue",
          "type": "string"
        }
      ],
      "stateMutability": "view",
      "type": "function"
    },
    {
      "inputs": [
        {
          "internalType": "string",
          "name": "name",
          "type": "string"
        }
      ],
      "name": "getNameDetails",
      "outputs": [
        {
          "internalType": "address",
          "name": "ownerAddress",
          "type": "address"
        },
        {
          "internalType": "uint256",
          "name": "creationTimestamp",
          "type": "uint256"
        },
        {
          "internalType": "uint256",
          "name": "registrationPrice",
          "type": "uint256"
        },
        {
          "internalType": "uint256",
          "name": "expiryTimestamp",
          "type": "uint256"
        },
        {
          "internalType": "string",
          "name": "tokenURIValue",
          "type": "string"
        }
      ],
      "stateMutability": "view",
      "type": "function"
    },
    {
      "inputs": [
        {
          "internalType": "string",
          "name": "name",
          "type": "string"
        }
      ],
      "name": "getRegistrationPrice",
      "outputs": [
        {
          "internalType": "uint256",
          "name": "",
          "type": "uint256"
        }
      ],
      "stateMutability": "view",
      "type": "function"
    },
    {
      "inputs": [
        {
          "internalType": "address",
          "name": "owner",
          "type": "address"
        },
        {
          "internalType": "address",
          "name": "operator",
          "type": "address"
        }
      ],
      "name": "isApprovedForAll",
      "outputs": [
        {
          "internalType": "bool",
          "name": "",
          "type": "bool"
        }
      ],
      "stateMutability": "view",
      "type": "function"
    },
    {
      "inputs": [],
      "name": "name",
      "outputs": [
        {
          "internalType": "string",
          "name": "",
          "type": "string"
        }
      ],
      "stateMutability": "view",
      "type": "function"
    },
    {
      "inputs": [
        {
          "internalType": "string",
          "name": "",
          "type": "string"
        }
      ],
      "name": "nameExists",
      "outputs": [
        {
          "internalType": "bool",
          "name": "",
          "type": "bool"
        }
      ],
      "stateMutability": "view",
      "type": "function"
    },
    {
      "inputs": [
        {
          "internalType": "string",
          "name": "",
          "type": "string"
        }
      ],
      "name": "nameExpiry",
      "outputs": [
        {
          "internalType": "uint256",
          "name": "",
          "type": "uint256"
        }
      ],
      "stateMutability": "view",
      "type": "function"
    },
    {
      "inputs": [
        {
          "internalType": "string",
          "name": "",
          "type": "string"
        }
      ],
      "name": "namePrices",
      "outputs": [
        {
          "internalType": "uint256",
          "name": "",
          "type": "uint256"
        }
      ],
      "stateMutability": "view",
      "type": "function"
    },
    {
      "inputs": [
        {
          "internalType": "string",
          "name": "",
          "type": "string"
        }
      ],
      "name": "nameToTokenId",
      "outputs": [
        {
          "internalType": "uint256",
          "name": "",
          "type": "uint256"
        }
      ],
      "stateMutability": "view",
      "type": "function"
    },
    {
      "inputs": [],
      "name": "nextTokenId",
      "outputs": [
        {
          "internalType": "uint256",
          "name": "",
          "type": "uint256"
        }
      ],
      "stateMutability": "view",
      "type": "function"
    },
    {
      "inputs": [],
      "name": "owner",
      "outputs": [
        {
          "internalType": "address",
          "name": "",
          "type": "address"
        }
      ],
      "stateMutability": "view",
      "type": "function"
    },
    {
      "inputs": [
        {
          "internalType": "uint256",
          "name": "tokenId",
          "type": "uint256"
        }
      ],
      "name": "ownerOf",
      "outputs": [
        {
          "internalType": "address",
          "name": "",
          "type": "address"
        }
      ],
      "stateMutability": "view",
      "type": "function"
    },
    {
      "inputs": [
        {
          "internalType": "string",
          "name": "name",
          "type": "string"
        },
        {
          "internalType": "string",
          "name": "metadataURI",
          "type": "string"
        }
      ],
      "name": "registerName",
      "outputs": [],
      "stateMutability": "payable",
      "type": "function"
    },
    {
      "inputs": [],
      "name": "registrationDuration",
      "outputs": [
        {
          "internalType": "uint256",
          "name": "",
          "type": "uint256"
        }
      ],
      "stateMutability": "view",
      "type": "function"
    },
    {
      "inputs": [],
      "name": "renounceOwnership",
      "outputs": [],
      "stateMutability": "nonpayable",
      "type": "function"
    },
    {
      "inputs": [
        {
          "internalType": "string",
          "name": "nameWithTld",
          "type": "string"
        }
      ],
      "name": "resolveName",
      "outputs": [
        {
          "internalType": "address",
          "name": "",
          "type": "address"
        }
      ],
      "stateMutability": "view",
      "type": "function"
    },
    {
      "inputs": [
        {
          "internalType": "address",
          "name": "addr",
          "type": "address"
        }
      ],
      "name": "reverseResolver",
      "outputs": [
        {
          "internalType": "string",
          "name": "",
          "type": "string"
        }
      ],
      "stateMutability": "view",
      "type": "function"
    },
    {
      "inputs": [
        {
          "internalType": "address",
          "name": "from",
          "type": "address"
        },
        {
          "internalType": "address",
          "name": "to",
          "type": "address"
        },
        {
          "internalType": "uint256",
          "name": "tokenId",
          "type": "uint256"
        }
      ],
      "name": "safeTransferFrom",
      "outputs": [],
      "stateMutability": "nonpayable",
      "type": "function"
    },
    {
      "inputs": [
        {
          "internalType": "address",
          "name": "from",
          "type": "address"
        },
        {
          "internalType": "address",
          "name": "to",
          "type": "address"
        },
        {
          "internalType": "uint256",
          "name": "tokenId",
          "type": "uint256"
        },
        {
          "internalType": "bytes",
          "name": "data",
          "type": "bytes"
        }
      ],
      "name": "safeTransferFrom",
      "outputs": [],
      "stateMutability": "nonpayable",
      "type": "function"
    },
    {
      "inputs": [
        {
          "internalType": "address",
          "name": "operator",
          "type": "address"
        },
        {
          "internalType": "bool",
          "name": "approved",
          "type": "bool"
        }
      ],
      "name": "setApprovalForAll",
      "outputs": [],
      "stateMutability": "nonpayable",
      "type": "function"
    },
    {
      "inputs": [
        {
          "internalType": "uint256",
          "name": "price",
          "type": "uint256"
        }
      ],
      "name": "setBaseRegistrationPrice",
      "outputs": [],
      "stateMutability": "nonpayable",
      "type": "function"
    },
    {
      "inputs": [
        {
          "internalType": "uint256",
          "name": "duration",
          "type": "uint256"
        }
      ],
      "name": "setRegistrationDuration",
      "outputs": [],
      "stateMutability": "nonpayable",
      "type": "function"
    },
    {
      "inputs": [
        {
          "internalType": "string",
          "name": "name",
          "type": "string"
        },
        {
          "internalType": "uint256",
          "name": "price",
          "type": "uint256"
        }
      ],
      "name": "setRegistrationPrice",
      "outputs": [],
      "stateMutability": "nonpayable",
      "type": "function"
    },
    {
      "inputs": [
        {
          "internalType": "uint256",
          "name": "tokenId",
          "type": "uint256"
        },
        {
          "internalType": "string",
          "name": "metadataURI",
          "type": "string"
        }
      ],
      "name": "setTokenURI",
      "outputs": [],
      "stateMutability": "nonpayable",
      "type": "function"
    },
    {
      "inputs": [
        {
          "internalType": "bytes4",
          "name": "interfaceId",
          "type": "bytes4"
        }
      ],
      "name": "supportsInterface",
      "outputs": [
        {
          "internalType": "bool",
          "name": "",
          "type": "bool"
        }
      ],
      "stateMutability": "view",
      "type": "function"
    },
    {
      "inputs": [],
      "name": "symbol",
      "outputs": [
        {
          "internalType": "string",
          "name": "",
          "type": "string"
        }
      ],
      "stateMutability": "view",
      "type": "function"
    },
    {
      "inputs": [
        {
          "internalType": "uint256",
          "name": "index",
          "type": "uint256"
        }
      ],
      "name": "tokenByIndex",
      "outputs": [
        {
          "internalType": "uint256",
          "name": "",
          "type": "uint256"
        }
      ],
      "stateMutability": "view",
      "type": "function"
    },
    {
      "inputs": [
        {
          "internalType": "string",
          "name": "name",
          "type": "string"
        }
      ],
      "name": "tokenIdOf",
      "outputs": [
        {
          "internalType": "uint256",
          "name": "",
          "type": "uint256"
        }
      ],
      "stateMutability": "view",
      "type": "function"
    },
    {
      "inputs": [
        {
          "internalType": "uint256",
          "name": "",
          "type": "uint256"
        }
      ],
      "name": "tokenIdToCreationTimestamp",
      "outputs": [
        {
          "internalType": "uint256",
          "name": "",
          "type": "uint256"
        }
      ],
      "stateMutability": "view",
      "type": "function"
    },
    {
      "inputs": [
        {
          "internalType": "uint256",
          "name": "",
          "type": "uint256"
        }
      ],
      "name": "tokenIdToName",
      "outputs": [
        {
          "internalType": "string",
          "name": "",
          "type": "string"
        }
      ],
      "stateMutability": "view",
      "type": "function"
    },
    {
      "inputs": [
        {
          "internalType": "address",
          "name": "owner",
          "type": "address"
        },
        {
          "internalType": "uint256",
          "name": "index",
          "type": "uint256"
        }
      ],
      "name": "tokenOfOwnerByIndex",
      "outputs": [
        {
          "internalType": "uint256",
          "name": "",
          "type": "uint256"
        }
      ],
      "stateMutability": "view",
      "type": "function"
    },
    {
      "inputs": [
        {
          "internalType": "uint256",
          "name": "tokenId",
          "type": "uint256"
        }
      ],
      "name": "tokenURI",
      "outputs": [
        {
          "internalType": "string",
          "name": "",
          "type": "string"
        }
      ],
      "stateMutability": "view",
      "type": "function"
    },
    {
      "inputs": [],
      "name": "totalSupply",
      "outputs": [
        {
          "internalType": "uint256",
          "name": "",
          "type": "uint256"
        }
      ],
      "stateMutability": "view",
      "type": "function"
    },
    {
      "inputs": [
        {
          "internalType": "address",
          "name": "from",
          "type": "address"
        },
        {
          "internalType": "address",
          "name": "to",
          "type": "address"
        },
        {
          "internalType": "uint256",
          "name": "tokenId",
          "type": "uint256"
        }
      ],
      "name": "transferFrom",
      "outputs": [],
      "stateMutability": "nonpayable",
      "type": "function"
    },
    {
      "inputs": [
        {
          "internalType": "address",
          "name": "to",
          "type": "address"
        },
        {
          "internalType": "uint256",
          "name": "tokenId",
          "type": "uint256"
        }
      ],
      "name": "transferName",
      "outputs": [],
      "stateMutability": "nonpayable",
      "type": "function"
    },
    {
      "inputs": [
        {
          "internalType": "address",
          "name": "newOwner",
          "type": "address"
        }
      ],
      "name": "transferOwnership",
      "outputs": [],
      "stateMutability": "nonpayable",
      "type": "function"
    },
    {
      "inputs": [],
      "name": "withdraw",
      "outputs": [],
      "stateMutability": "nonpayable",
      "type": "function"
    }
  ],
  "bytecode": "0x60806040526001600b556622d10c4ecc8000600c556301e13380600d556040518060400160405280600581526020017f2e6d6f6465000000000000000000000000000000000000000000000000000000815250600e90816200006291906200042e565b503480156200007057600080fd5b506040516200606438038062006064833981810160405281019062000096919062000679565b81818160009081620000a991906200042e565b508060019081620000bb91906200042e565b505050620000de620000d2620000e660201b60201c565b620000ee60201b60201c565b5050620006fe565b600033905090565b6000600a60009054906101000a900473ffffffffffffffffffffffffffffffffffffffff16905081600a60006101000a81548173ffffffffffffffffffffffffffffffffffffffff021916908373ffffffffffffffffffffffffffffffffffffffff1602179055508173ffffffffffffffffffffffffffffffffffffffff168173ffffffffffffffffffffffffffffffffffffffff167f8be0079c531659141344cd1fd0a4f28419497f9722a3daafe3b4186f6b6457e060405160405180910390a35050565b600081519050919050565b7f4e487b7100000000000000000000000000000000000000000000000000000000600052604160045260246000fd5b7f4e487b7100000000000000000000000000000000000000000000000000000000600052602260045260246000fd5b600060028204905060018216806200023657607f821691505b6020821081036200024c576200024b620001ee565b5b50919050565b60008190508160005260206000209050919050565b60006020601f8301049050919050565b600082821b905092915050565b600060088302620002b67fffffffffffffffffffffffffffffffffffffffffffffffffffffffffffffffff8262000277565b620002c2868362000277565b95508019841693508086168417925050509392505050565b6000819050919050565b6000819050919050565b60006200030f620003096200030384620002da565b620002e4565b620002da565b9050919050565b6000819050919050565b6200032b83620002ee565b620003436200033a8262000316565b84845462000284565b825550505050565b600090565b6200035a6200034b565b6200036781848462000320565b505050565b5b818110156200038f576200038360008262000350565b6001810190506200036d565b5050565b601f821115620003de57620003a88162000252565b620003b38462000267565b81016020851015620003c3578190505b620003db620003d28562000267565b8301826200036c565b50505b505050565b600082821c905092915050565b60006200040360001984600802620003e3565b1980831691505092915050565b60006200041e8383620003f0565b9150826002028217905092915050565b6200043982620001b4565b67ffffffffffffffff811115620004555762000454620001bf565b5b6200046182546200021d565b6200046e82828562000393565b600060209050601f831160018114620004a6576000841562000491578287015190505b6200049d858262000410565b8655506200050d565b601f198416620004b68662000252565b60005b82811015620004e057848901518255600182019150602085019450602081019050620004b9565b86831015620005005784890151620004fc601f891682620003f0565b8355505b6001600288020188555050505b505050505050565b6000604051905090565b600080fd5b600080fd5b600080fd5b600080fd5b6000601f19601f8301169050919050565b6200054f8262000533565b810181811067ffffffffffffffff82111715620005715762000570620001bf565b5b80604052505050565b60006200058662000515565b905062000594828262000544565b919050565b600067ffffffffffffffff821115620005b757620005b6620001bf565b5b620005c28262000533565b9050602081019050919050565b60005b83811015620005ef578082015181840152602081019050620005d2565b60008484015250505050565b6000620006126200060c8462000599565b6200057a565b9050828152602081018484840111156200063157620006306200052e565b5b6200063e848285620005cf565b509392505050565b600082601f8301126200065e576200065d62000529565b5b815162000670848260208601620005fb565b91505092915050565b600080604083850312156200069357620006926200051f565b5b600083015167ffffffffffffffff811115620006b457620006b362000524565b5b620006c28582860162000646565b925050602083015167ffffffffffffffff811115620006e657620006e562000524565b5b620006f48582860162000646565b9150509250929050565b615956806200070e6000396000f3fe6080604052600436106102725760003560e01c80637c80bb4f1161014f578063c87b56dd116100c1578063dd0012541161007a578063dd00125414610a17578063de90d11114610a54578063e985e9c514610a7f578063ee6f10f114610abc578063f2fde38b14610af9578063ff21ce9c14610b2257610272565b8063c87b56dd146108cf578063cc637afe1461090c578063d1179f1614610949578063d3247cc614610986578063d479dbfa146109af578063da2bfdb1146109da57610272565b8063a2de996511610113578063a2de9965146107aa578063a398d819146107c6578063b88d4fde14610803578063bc19bce51461082c578063c28043fe14610869578063c626347b1461089257610272565b80637c80bb4f146106ad5780637f5c455d146106ee5780638da5cb5b1461072b57806395d89b4114610756578063a22cb4651461078157610272565b80632d3734a8116101e857806357d7945c116101ac57806357d7945c146105895780636352211e146105c65780636450f31e1461060357806370a082311461062e578063715018a61461066b57806375794a3c1461068257610272565b80632d3734a8146104925780632f745c59146104cf5780633ccfd60b1461050c57806342842e0e146105235780634f6ccce71461054c57610272565b8063162094c41161023a578063162094c41461036e57806318160ddd14610397578063182d8cea146103c257806323b872dd146103ff57806327d40e07146104285780632c122cf61461045157610272565b806301ffc9a71461027757806306fdde03146102b4578063081812fc146102df578063095ea7b31461031c578063096e36cc14610345575b600080fd5b34801561028357600080fd5b5061029e60048036038101906102999190613bb5565b610b3e565b6040516102ab9190613bfd565b60405180910390f35b3480156102c057600080fd5b506102c9610bb8565b6040516102d69190613ca8565b60405180910390f35b3480156102eb57600080fd5b5061030660048036038101906103019190613d00565b610c4a565b6040516103139190613d6e565b60405180910390f35b34801561032857600080fd5b50610343600480360381019061033e9190613db5565b610c90565b005b34801561035157600080fd5b5061036c60048036038101906103679190613d00565b610da7565b005b34801561037a57600080fd5b5061039560048036038101906103909190613f2a565b610db9565b005b3480156103a357600080fd5b506103ac610e2e565b6040516103b99190613f95565b60405180910390f35b3480156103ce57600080fd5b506103e960048036038101906103e49190613fb0565b610e3b565b6040516103f69190613f95565b60405180910390f35b34801561040b57600080fd5b5061042660048036038101906104219190613ff9565b610e69565b005b34801561043457600080fd5b5061044f600480360381019061044a9190613db5565b610ec9565b005b34801561045d57600080fd5b5061047860048036038101906104739190613fb0565b611054565b60405161048995949392919061404c565b60405180910390f35b34801561049e57600080fd5b506104b960048036038101906104b491906140a6565b6111cc565b6040516104c69190613bfd565b60405180910390f35b3480156104db57600080fd5b506104f660048036038101906104f19190613db5565b6111de565b6040516105039190613f95565b60405180910390f35b34801561051857600080fd5b50610521611283565b005b34801561052f57600080fd5b5061054a60048036038101906105459190613ff9565b6112e1565b005b34801561055857600080fd5b50610573600480360381019061056e9190613d00565b611301565b6040516105809190613f95565b60405180910390f35b34801561059557600080fd5b506105b060048036038101906105ab91906140a6565b611372565b6040516105bd9190613ca8565b60405180910390f35b3480156105d257600080fd5b506105ed60048036038101906105e89190613d00565b6114ca565b6040516105fa9190613d6e565b60405180910390f35b34801561060f57600080fd5b50610618611550565b6040516106259190613f95565b60405180910390f35b34801561063a57600080fd5b50610655600480360381019061065091906140a6565b611556565b6040516106629190613f95565b60405180910390f35b34801561067757600080fd5b5061068061160d565b005b34801561068e57600080fd5b50610697611621565b6040516106a49190613f95565b60405180910390f35b3480156106b957600080fd5b506106d460048036038101906106cf91906140a6565b611627565b6040516106e59594939291906140d3565b60405180910390f35b3480156106fa57600080fd5b5061071560048036038101906107109190613fb0565b61186b565b6040516107229190613f95565b60405180910390f35b34801561073757600080fd5b50610740611899565b60405161074d9190613d6e565b60405180910390f35b34801561076257600080fd5b5061076b6118c3565b6040516107789190613ca8565b60405180910390f35b34801561078d57600080fd5b506107a860048036038101906107a39190614160565b611955565b005b6107c460048036038101906107bf91906141a0565b61196b565b005b3480156107d257600080fd5b506107ed60048036038101906107e89190613fb0565b611c08565b6040516107fa9190613f95565b60405180910390f35b34801561080f57600080fd5b5061082a6004803603810190610825919061429d565b611c30565b005b34801561083857600080fd5b50610853600480360381019061084e9190613fb0565b611c92565b6040516108609190613d6e565b60405180910390f35b34801561087557600080fd5b50610890600480360381019061088b91906141a0565b611d42565b005b34801561089e57600080fd5b506108b960048036038101906108b49190613fb0565b611d71565b6040516108c69190613f95565b60405180910390f35b3480156108db57600080fd5b506108f660048036038101906108f19190613d00565b611e84565b6040516109039190613ca8565b60405180910390f35b34801561091857600080fd5b50610933600480360381019061092e9190613fb0565b611f71565b6040516109409190613bfd565b60405180910390f35b34801561095557600080fd5b50610970600480360381019061096b91906141a0565b611fa7565b60405161097d9190613f95565b60405180910390f35b34801561099257600080fd5b506109ad60048036038101906109a89190613d00565b61206f565b005b3480156109bb57600080fd5b506109c46120b8565b6040516109d191906143de565b60405180910390f35b3480156109e657600080fd5b50610a0160048036038101906109fc9190613d00565b6121b2565b604051610a0e9190613ca8565b60405180910390f35b348015610a2357600080fd5b50610a3e6004803603810190610a399190613fb0565b612252565b604051610a4b9190613f95565b60405180910390f35b348015610a6057600080fd5b50610a69612280565b604051610a769190613f95565b60405180910390f35b348015610a8b57600080fd5b50610aa66004803603810190610aa19190614400565b612286565b604051610ab39190613bfd565b60405180910390f35b348015610ac857600080fd5b50610ae36004803603810190610ade9190613d00565b61231a565b604051610af09190613f95565b60405180910390f35b348015610b0557600080fd5b50610b206004803603810190610b1b91906140a6565b612332565b005b610b3c6004803603810190610b379190614440565b6123b5565b005b60007f780e9d63000000000000000000000000000000000000000000000000000000007bffffffffffffffffffffffffffffffffffffffffffffffffffffffff1916827bffffffffffffffffffffffffffffffffffffffffffffffffffffffff19161480610bb15750610bb0826126ac565b5b9050919050565b606060008054610bc7906144e7565b80601f0160208091040260200160405190810160405280929190818152602001828054610bf3906144e7565b8015610c405780601f10610c1557610100808354040283529160200191610c40565b820191906000526020600020905b815481529060010190602001808311610c2357829003601f168201915b5050505050905090565b6000610c558261278e565b6004600083815260200190815260200160002060009054906101000a900473ffffffffffffffffffffffffffffffffffffffff169050919050565b6000610c9b826114ca565b90508073ffffffffffffffffffffffffffffffffffffffff168373ffffffffffffffffffffffffffffffffffffffff1603610d0b576040517f08c379a0000000000000000000000000000000000000000000000000000000008152600401610d029061458a565b60405180910390fd5b8073ffffffffffffffffffffffffffffffffffffffff16610d2a6127d9565b73ffffffffffffffffffffffffffffffffffffffff161480610d595750610d5881610d536127d9565b612286565b5b610d98576040517f08c379a0000000000000000000000000000000000000000000000000000000008152600401610d8f9061461c565b60405180910390fd5b610da283836127e1565b505050565b610daf61289a565b80600d8190555050565b610dc161289a565b610dca82612918565b610e09576040517f08c379a0000000000000000000000000000000000000000000000000000000008152600401610e0090614688565b60405180910390fd5b80601460008481526020019081526020016000209081610e299190614854565b505050565b6000600880549050905090565b6015818051602081018201805184825260208301602085012081835280955050505050506000915090505481565b610e7a610e746127d9565b82612959565b610eb9576040517f08c379a0000000000000000000000000000000000000000000000000000000008152600401610eb090614998565b60405180910390fd5b610ec48383836129ee565b505050565b3373ffffffffffffffffffffffffffffffffffffffff16610ee9826114ca565b73ffffffffffffffffffffffffffffffffffffffff1614610f3f576040517f08c379a0000000000000000000000000000000000000000000000000000000008152600401610f3690614a04565b60405180910390fd5b6000601160008381526020019081526020016000208054610f5f906144e7565b80601f0160208091040260200160405190810160405280929190818152602001828054610f8b906144e7565b8015610fd85780601f10610fad57610100808354040283529160200191610fd8565b820191906000526020600020905b815481529060010190602001808311610fbb57829003601f168201915b50505050509050610fea3384846129ee565b8273ffffffffffffffffffffffffffffffffffffffff163373ffffffffffffffffffffffffffffffffffffffff167f61ce72876df632c9cea54f37e843a14873bc9a7abd2f79797a8a00e467081f3c836040516110479190613ca8565b60405180910390a3505050565b6000806000806060600061106787611c08565b90506010876040516110799190614a60565b908152602001604051809103902060009054906101000a900460ff166110d4576040517f08c379a00000000000000000000000000000000000000000000000000000000081526004016110cb90614ac3565b60405180910390fd5b6110dd816114ca565b60136000838152602001908152602001600020546110fa89611d71565b60158a60405161110a9190614a60565b90815260200160405180910390205460146000868152602001908152602001600020808054611138906144e7565b80601f0160208091040260200160405190810160405280929190818152602001828054611164906144e7565b80156111b15780601f10611186576101008083540402835291602001916111b1565b820191906000526020600020905b81548152906001019060200180831161119457829003601f168201915b50505050509050955095509550955095505091939590929450565b60006111d782612ce7565b9050919050565b60006111e983611556565b821061122a576040517f08c379a000000000000000000000000000000000000000000000000000000000815260040161122190614b55565b60405180910390fd5b600660008473ffffffffffffffffffffffffffffffffffffffff1673ffffffffffffffffffffffffffffffffffffffff168152602001908152602001600020600083815260200190815260200160002054905092915050565b61128b61289a565b6000479050611298611899565b73ffffffffffffffffffffffffffffffffffffffff166108fc829081150290604051600060405180830381858888f193505050501580156112dd573d6000803e3d6000fd5b5050565b6112fc83838360405180602001604052806000815250611c30565b505050565b600061130b610e2e565b821061134c576040517f08c379a000000000000000000000000000000000000000000000000000000000815260040161134390614be7565b60405180910390fd5b600882815481106113605761135f614c07565b5b90600052602060002001549050919050565b60606000600190505b600b548110156114b15761138e81612918565b80156113cd57508273ffffffffffffffffffffffffffffffffffffffff166113b5826114ca565b73ffffffffffffffffffffffffffffffffffffffff16145b1561149e5760006011600083815260200190815260200160002080546113f2906144e7565b80601f016020809104026020016040519081016040528092919081815260200182805461141e906144e7565b801561146b5780601f106114405761010080835404028352916020019161146b565b820191906000526020600020905b81548152906001019060200180831161144e57829003601f168201915b5050505050905080600e604051602001611486929190614cb9565b604051602081830303815290604052925050506114c5565b80806114a990614d0c565b91505061137b565b506040518060200160405280600081525090505b919050565b6000806114d683612d6e565b9050600073ffffffffffffffffffffffffffffffffffffffff168173ffffffffffffffffffffffffffffffffffffffff1603611547576040517f08c379a000000000000000000000000000000000000000000000000000000000815260040161153e90614da0565b60405180910390fd5b80915050919050565b600c5481565b60008073ffffffffffffffffffffffffffffffffffffffff168273ffffffffffffffffffffffffffffffffffffffff16036115c6576040517f08c379a00000000000000000000000000000000000000000000000000000000081526004016115bd90614e32565b60405180910390fd5b600360008373ffffffffffffffffffffffffffffffffffffffff1673ffffffffffffffffffffffffffffffffffffffff168152602001908152602001600020549050919050565b61161561289a565b61161f6000612dab565b565b600b5481565b6060600080600060606000600190505b600b5481101561182e5761164a81612918565b801561168957508673ffffffffffffffffffffffffffffffffffffffff16611671826114ca565b73ffffffffffffffffffffffffffffffffffffffff16145b1561181b5760006011600083815260200190815260200160002080546116ae906144e7565b80601f01602080910402602001604051908101604052809291908181526020018280546116da906144e7565b80156117275780601f106116fc57610100808354040283529160200191611727565b820191906000526020600020905b81548152906001019060200180831161170a57829003601f168201915b5050505050905080601360008481526020019081526020016000205461174c83611d71565b60158460405161175c9190614a60565b9081526020016040518091039020546014600087815260200190815260200160002080805461178a906144e7565b80601f01602080910402602001604051908101604052809291908181526020018280546117b6906144e7565b80156118035780601f106117d857610100808354040283529160200191611803565b820191906000526020600020905b8154815290600101906020018083116117e657829003601f168201915b50505050509050965096509650965096505050611862565b808061182690614d0c565b915050611637565b5060008060006040518060200160405280600081525092919060405180602001604052806000815250945094509450945094505b91939590929450565b600f818051602081018201805184825260208301602085012081835280955050505050506000915090505481565b6000600a60009054906101000a900473ffffffffffffffffffffffffffffffffffffffff16905090565b6060600180546118d2906144e7565b80601f01602080910402602001604051908101604052809291908181526020018280546118fe906144e7565b801561194b5780601f106119205761010080835404028352916020019161194b565b820191906000526020600020905b81548152906001019060200180831161192e57829003601f168201915b5050505050905090565b6119676119606127d9565b8383612e71565b5050565b60108260405161197b9190614a60565b908152602001604051809103902060009054906101000a900460ff166119d6576040517f08c379a00000000000000000000000000000000000000000000000000000000081526004016119cd90614ac3565b60405180910390fd5b3373ffffffffffffffffffffffffffffffffffffffff166119fe6119f984611c08565b6114ca565b73ffffffffffffffffffffffffffffffffffffffff1614611a54576040517f08c379a0000000000000000000000000000000000000000000000000000000008152600401611a4b90614ec4565b60405180910390fd5b60008111611a97576040517f08c379a0000000000000000000000000000000000000000000000000000000008152600401611a8e90614f56565b60405180910390fd5b6000611aa38383611fa7565b905080341015611ae8576040517f08c379a0000000000000000000000000000000000000000000000000000000008152600401611adf90614fc2565b60405180910390fd5b6301e1338082611af89190614fe2565b601584604051611b089190614a60565b90815260200160405180910390206000828254611b259190615024565b925050819055506000611b418234612fdd90919063ffffffff16565b90506000811115611b94573373ffffffffffffffffffffffffffffffffffffffff166108fc829081150290604051600060405180830381858888f19350505050158015611b92573d6000803e3d6000fd5b505b3373ffffffffffffffffffffffffffffffffffffffff167fa41e0452047546d9b0f775ebc42b65c631a9c861670c6b2479651f4d4a92897785601587604051611bdd9190614a60565b908152602001604051809103902054604051611bfa929190615058565b60405180910390a250505050565b6000601282604051611c1a9190614a60565b9081526020016040518091039020549050919050565b611c41611c3b6127d9565b83612959565b611c80576040517f08c379a0000000000000000000000000000000000000000000000000000000008152600401611c7790614998565b60405180910390fd5b611c8c84848484612ff3565b50505050565b6000600e8054611ca1906144e7565b9050825111611ce5576040517f08c379a0000000000000000000000000000000000000000000000000000000008152600401611cdc906150d4565b60405180910390fd5b6000611d0d836000600e8054611cfa906144e7565b90508651611d0891906150f4565b61304f565b90506000611d1a82611c08565b905060008114611d3657611d2d816114ca565b92505050611d3d565b6000925050505b919050565b611d4a61289a565b80600f83604051611d5b9190614a60565b9081526020016040518091039020819055505050565b6000808251905060028111611dbb576040517f08c379a0000000000000000000000000000000000000000000000000000000008152600401611db29061519a565b60405180910390fd5b6000600c54905060038203611de557611dde60028261319b90919063ffffffff16565b9050611e19565b6003821115611e1857611e156002611e0760038461319b90919063ffffffff16565b6131b190919063ffffffff16565b90505b5b60005b82811015611e7957611e4a858281518110611e3a57611e39614c07565b5b602001015160f81c60f81b6131c7565b15611e6657611e636002836131b190919063ffffffff16565b91505b8080611e7190614d0c565b915050611e1c565b508092505050919050565b6060611e8f82612918565b611ece576040517f08c379a0000000000000000000000000000000000000000000000000000000008152600401611ec590614688565b60405180910390fd5b601460008381526020019081526020016000208054611eec906144e7565b80601f0160208091040260200160405190810160405280929190818152602001828054611f18906144e7565b8015611f655780601f10611f3a57610100808354040283529160200191611f65565b820191906000526020600020905b815481529060010190602001808311611f4857829003601f168201915b50505050509050919050565b6010818051602081018201805184825260208301602085012081835280955050505050506000915054906101000a900460ff1681565b6000601083604051611fb99190614a60565b908152602001604051809103902060009054906101000a900460ff16612014576040517f08c379a000000000000000000000000000000000000000000000000000000000815260040161200b90614ac3565b60405180910390fd5b60006015846040516120269190614a60565b908152602001604051809103902054905060006301e13380846120499190614fe2565b826120549190615024565b9050600061206186611d71565b905080935050505092915050565b61207761289a565b80600c819055507f7e7c2c306b30146445227c233f02cb49d48e16d60345707ca28ec88bdc02856f816040516120ad9190613f95565b60405180910390a150565b606060006001600b546120cb91906150f4565b67ffffffffffffffff8111156120e4576120e3613dff565b5b6040519080825280602002602001820160405280156121125781602001602082028036833780820191505090505b5090506000600190505b600b548110156121aa5761212f81612918565b156121975761213d816114ca565b8260018361214b91906150f4565b8151811061215c5761215b614c07565b5b602002602001019073ffffffffffffffffffffffffffffffffffffffff16908173ffffffffffffffffffffffffffffffffffffffff16815250505b80806121a290614d0c565b91505061211c565b508091505090565b601160205280600052604060002060009150905080546121d1906144e7565b80601f01602080910402602001604051908101604052809291908181526020018280546121fd906144e7565b801561224a5780601f1061221f5761010080835404028352916020019161224a565b820191906000526020600020905b81548152906001019060200180831161222d57829003601f168201915b505050505081565b6012818051602081018201805184825260208301602085012081835280955050505050506000915090505481565b600d5481565b6000600560008473ffffffffffffffffffffffffffffffffffffffff1673ffffffffffffffffffffffffffffffffffffffff16815260200190815260200160002060008373ffffffffffffffffffffffffffffffffffffffff1673ffffffffffffffffffffffffffffffffffffffff16815260200190815260200160002060009054906101000a900460ff16905092915050565b60136020528060005260406000206000915090505481565b61233a61289a565b600073ffffffffffffffffffffffffffffffffffffffff168173ffffffffffffffffffffffffffffffffffffffff16036123a9576040517f08c379a00000000000000000000000000000000000000000000000000000000081526004016123a09061522c565b60405180910390fd5b6123b281612dab565b50565b600015156010836040516123c99190614a60565b908152602001604051809103902060009054906101000a900460ff16151514612427576040517f08c379a000000000000000000000000000000000000000000000000000000000815260040161241e90615298565b60405180910390fd5b61243033612ce7565b15612470576040517f08c379a00000000000000000000000000000000000000000000000000000000081526004016124679061532a565b60405180910390fd5b600061247b83611d71565b9050803410156124c0576040517f08c379a00000000000000000000000000000000000000000000000000000000081526004016124b790614fc2565b60405180910390fd5b6124cc33600b546132a8565b600b546012846040516124df9190614a60565b90815260200160405180910390208190555060016010846040516125039190614a60565b908152602001604051809103902060006101000a81548160ff0219169083151502179055508260116000600b548152602001908152602001600020908161254a9190614854565b504260136000600b548152602001908152602001600020819055508160146000600b54815260200190815260200160002090816125879190614854565b50600d54426125969190615024565b6015846040516125a69190614a60565b9081526020016040518091039020819055503373ffffffffffffffffffffffffffffffffffffffff167fdcc2175a495289b48da3c0c903e6e8fd7bbf9400cc93d7d1b8be780fc5916c66846015866040516126019190614a60565b90815260200160405180910390205460405161261e929190615058565b60405180910390a2600b600081548092919061263990614d0c565b919050555060006126538234612fdd90919063ffffffff16565b905060008111156126a6573373ffffffffffffffffffffffffffffffffffffffff166108fc829081150290604051600060405180830381858888f193505050501580156126a4573d6000803e3d6000fd5b505b50505050565b60007f80ac58cd000000000000000000000000000000000000000000000000000000007bffffffffffffffffffffffffffffffffffffffffffffffffffffffff1916827bffffffffffffffffffffffffffffffffffffffffffffffffffffffff1916148061277757507f5b5e139f000000000000000000000000000000000000000000000000000000007bffffffffffffffffffffffffffffffffffffffffffffffffffffffff1916827bffffffffffffffffffffffffffffffffffffffffffffffffffffffff1916145b806127875750612786826134c5565b5b9050919050565b61279781612918565b6127d6576040517f08c379a00000000000000000000000000000000000000000000000000000000081526004016127cd90614da0565b60405180910390fd5b50565b600033905090565b816004600083815260200190815260200160002060006101000a81548173ffffffffffffffffffffffffffffffffffffffff021916908373ffffffffffffffffffffffffffffffffffffffff160217905550808273ffffffffffffffffffffffffffffffffffffffff16612854836114ca565b73ffffffffffffffffffffffffffffffffffffffff167f8c5be1e5ebec7d5bd14f71427d1e84f3dd0314c0f7b2291e5b200ac8c7c3b92560405160405180910390a45050565b6128a26127d9565b73ffffffffffffffffffffffffffffffffffffffff166128c0611899565b73ffffffffffffffffffffffffffffffffffffffff1614612916576040517f08c379a000000000000000000000000000000000000000000000000000000000815260040161290d90615396565b60405180910390fd5b565b60008073ffffffffffffffffffffffffffffffffffffffff1661293a83612d6e565b73ffffffffffffffffffffffffffffffffffffffff1614159050919050565b600080612965836114ca565b90508073ffffffffffffffffffffffffffffffffffffffff168473ffffffffffffffffffffffffffffffffffffffff1614806129a757506129a68185612286565b5b806129e557508373ffffffffffffffffffffffffffffffffffffffff166129cd84610c4a565b73ffffffffffffffffffffffffffffffffffffffff16145b91505092915050565b8273ffffffffffffffffffffffffffffffffffffffff16612a0e826114ca565b73ffffffffffffffffffffffffffffffffffffffff1614612a64576040517f08c379a0000000000000000000000000000000000000000000000000000000008152600401612a5b90615428565b60405180910390fd5b600073ffffffffffffffffffffffffffffffffffffffff168273ffffffffffffffffffffffffffffffffffffffff1603612ad3576040517f08c379a0000000000000000000000000000000000000000000000000000000008152600401612aca906154ba565b60405180910390fd5b612ae0838383600161352f565b8273ffffffffffffffffffffffffffffffffffffffff16612b00826114ca565b73ffffffffffffffffffffffffffffffffffffffff1614612b56576040517f08c379a0000000000000000000000000000000000000000000000000000000008152600401612b4d90615428565b60405180910390fd5b6004600082815260200190815260200160002060006101000a81549073ffffffffffffffffffffffffffffffffffffffff02191690556001600360008573ffffffffffffffffffffffffffffffffffffffff1673ffffffffffffffffffffffffffffffffffffffff168152602001908152602001600020600082825403925050819055506001600360008473ffffffffffffffffffffffffffffffffffffffff1673ffffffffffffffffffffffffffffffffffffffff16815260200190815260200160002060008282540192505081905550816002600083815260200190815260200160002060006101000a81548173ffffffffffffffffffffffffffffffffffffffff021916908373ffffffffffffffffffffffffffffffffffffffff160217905550808273ffffffffffffffffffffffffffffffffffffffff168473ffffffffffffffffffffffffffffffffffffffff167fddf252ad1be2c89b69c2b068fc378daa952ba7f163c4a11628f55a4df523b3ef60405160405180910390a4612ce2838383600161368d565b505050565b600080600190505b600b54811015612d6357612d0281612918565b8015612d4157508273ffffffffffffffffffffffffffffffffffffffff16612d29826114ca565b73ffffffffffffffffffffffffffffffffffffffff16145b15612d50576001915050612d69565b8080612d5b90614d0c565b915050612cef565b50600090505b919050565b60006002600083815260200190815260200160002060009054906101000a900473ffffffffffffffffffffffffffffffffffffffff169050919050565b6000600a60009054906101000a900473ffffffffffffffffffffffffffffffffffffffff16905081600a60006101000a81548173ffffffffffffffffffffffffffffffffffffffff021916908373ffffffffffffffffffffffffffffffffffffffff1602179055508173ffffffffffffffffffffffffffffffffffffffff168173ffffffffffffffffffffffffffffffffffffffff167f8be0079c531659141344cd1fd0a4f28419497f9722a3daafe3b4186f6b6457e060405160405180910390a35050565b8173ffffffffffffffffffffffffffffffffffffffff168373ffffffffffffffffffffffffffffffffffffffff1603612edf576040517f08c379a0000000000000000000000000000000000000000000000000000000008152600401612ed690615526565b60405180910390fd5b80600560008573ffffffffffffffffffffffffffffffffffffffff1673ffffffffffffffffffffffffffffffffffffffff16815260200190815260200160002060008473ffffffffffffffffffffffffffffffffffffffff1673ffffffffffffffffffffffffffffffffffffffff16815260200190815260200160002060006101000a81548160ff0219169083151502179055508173ffffffffffffffffffffffffffffffffffffffff168373ffffffffffffffffffffffffffffffffffffffff167f17307eab39ab6107e8899845ad3d59bd9653f200f220920489ca2b5937696c3183604051612fd09190613bfd565b60405180910390a3505050565b60008183612feb91906150f4565b905092915050565b612ffe8484846129ee565b61300a84848484613693565b613049576040517f08c379a0000000000000000000000000000000000000000000000000000000008152600401613040906155b8565b60405180910390fd5b50505050565b60606000849050828411158015613067575080518311155b6130a6576040517f08c379a000000000000000000000000000000000000000000000000000000000815260040161309d90615624565b60405180910390fd5b600084846130b491906150f4565b67ffffffffffffffff8111156130cd576130cc613dff565b5b6040519080825280601f01601f1916602001820160405280156130ff5781602001600182028036833780820191505090505b50905060008590505b8481101561318e5782818151811061312357613122614c07565b5b602001015160f81c60f81b82878361313b91906150f4565b8151811061314c5761314b614c07565b5b60200101907effffffffffffffffffffffffffffffffffffffffffffffffffffffffffffff1916908160001a905350808061318690614d0c565b915050613108565b5080925050509392505050565b600081836131a99190614fe2565b905092915050565b600081836131bf9190615673565b905092915050565b60007f30000000000000000000000000000000000000000000000000000000000000007effffffffffffffffffffffffffffffffffffffffffffffffffffffffffffff1916827effffffffffffffffffffffffffffffffffffffffffffffffffffffffffffff1916101580156132a157507f39000000000000000000000000000000000000000000000000000000000000007effffffffffffffffffffffffffffffffffffffffffffffffffffffffffffff1916827effffffffffffffffffffffffffffffffffffffffffffffffffffffffffffff191611155b9050919050565b600073ffffffffffffffffffffffffffffffffffffffff168273ffffffffffffffffffffffffffffffffffffffff1603613317576040517f08c379a000000000000000000000000000000000000000000000000000000000815260040161330e906156f0565b60405180910390fd5b61332081612918565b15613360576040517f08c379a00000000000000000000000000000000000000000000000000000000081526004016133579061575c565b60405180910390fd5b61336e60008383600161352f565b61337781612918565b156133b7576040517f08c379a00000000000000000000000000000000000000000000000000000000081526004016133ae9061575c565b60405180910390fd5b6001600360008473ffffffffffffffffffffffffffffffffffffffff1673ffffffffffffffffffffffffffffffffffffffff16815260200190815260200160002060008282540192505081905550816002600083815260200190815260200160002060006101000a81548173ffffffffffffffffffffffffffffffffffffffff021916908373ffffffffffffffffffffffffffffffffffffffff160217905550808273ffffffffffffffffffffffffffffffffffffffff16600073ffffffffffffffffffffffffffffffffffffffff167fddf252ad1be2c89b69c2b068fc378daa952ba7f163c4a11628f55a4df523b3ef60405160405180910390a46134c160008383600161368d565b5050565b60007f01ffc9a7000000000000000000000000000000000000000000000000000000007bffffffffffffffffffffffffffffffffffffffffffffffffffffffff1916827bffffffffffffffffffffffffffffffffffffffffffffffffffffffff1916149050919050565b61353b8484848461381a565b600181111561357f576040517f08c379a0000000000000000000000000000000000000000000000000000000008152600401613576906157ee565b60405180910390fd5b6000829050600073ffffffffffffffffffffffffffffffffffffffff168573ffffffffffffffffffffffffffffffffffffffff16036135c6576135c181613820565b613605565b8373ffffffffffffffffffffffffffffffffffffffff168573ffffffffffffffffffffffffffffffffffffffff1614613604576136038582613869565b5b5b600073ffffffffffffffffffffffffffffffffffffffff168473ffffffffffffffffffffffffffffffffffffffff160361364757613642816139d6565b613686565b8473ffffffffffffffffffffffffffffffffffffffff168473ffffffffffffffffffffffffffffffffffffffff1614613685576136848482613aa7565b5b5b5050505050565b50505050565b60006136b48473ffffffffffffffffffffffffffffffffffffffff16613b26565b1561380d578373ffffffffffffffffffffffffffffffffffffffff1663150b7a026136dd6127d9565b8786866040518563ffffffff1660e01b81526004016136ff9493929190615863565b6020604051808303816000875af192505050801561373b57506040513d601f19601f8201168201806040525081019061373891906158c4565b60015b6137bd573d806000811461376b576040519150601f19603f3d011682016040523d82523d6000602084013e613770565b606091505b5060008151036137b5576040517f08c379a00000000000000000000000000000000000000000000000000000000081526004016137ac906155b8565b60405180910390fd5b805181602001fd5b63150b7a0260e01b7bffffffffffffffffffffffffffffffffffffffffffffffffffffffff1916817bffffffffffffffffffffffffffffffffffffffffffffffffffffffff191614915050613812565b600190505b949350505050565b50505050565b6008805490506009600083815260200190815260200160002081905550600881908060018154018082558091505060019003906000526020600020016000909190919091505550565b6000600161387684611556565b61388091906150f4565b9050600060076000848152602001908152602001600020549050818114613965576000600660008673ffffffffffffffffffffffffffffffffffffffff1673ffffffffffffffffffffffffffffffffffffffff168152602001908152602001600020600084815260200190815260200160002054905080600660008773ffffffffffffffffffffffffffffffffffffffff1673ffffffffffffffffffffffffffffffffffffffff168152602001908152602001600020600084815260200190815260200160002081905550816007600083815260200190815260200160002081905550505b6007600084815260200190815260200160002060009055600660008573ffffffffffffffffffffffffffffffffffffffff1673ffffffffffffffffffffffffffffffffffffffff16815260200190815260200160002060008381526020019081526020016000206000905550505050565b600060016008805490506139ea91906150f4565b9050600060096000848152602001908152602001600020549050600060088381548110613a1a57613a19614c07565b5b906000526020600020015490508060088381548110613a3c57613a3b614c07565b5b906000526020600020018190555081600960008381526020019081526020016000208190555060096000858152602001908152602001600020600090556008805480613a8b57613a8a6158f1565b5b6001900381819060005260206000200160009055905550505050565b6000613ab283611556565b905081600660008573ffffffffffffffffffffffffffffffffffffffff1673ffffffffffffffffffffffffffffffffffffffff168152602001908152602001600020600083815260200190815260200160002081905550806007600084815260200190815260200160002081905550505050565b6000808273ffffffffffffffffffffffffffffffffffffffff163b119050919050565b6000604051905090565b600080fd5b600080fd5b60007fffffffff0000000000000000000000000000000000000000000000000000000082169050919050565b613b9281613b5d565b8114613b9d57600080fd5b50565b600081359050613baf81613b89565b92915050565b600060208284031215613bcb57613bca613b53565b5b6000613bd984828501613ba0565b91505092915050565b60008115159050919050565b613bf781613be2565b82525050565b6000602082019050613c126000830184613bee565b92915050565b600081519050919050565b600082825260208201905092915050565b60005b83811015613c52578082015181840152602081019050613c37565b60008484015250505050565b6000601f19601f8301169050919050565b6000613c7a82613c18565b613c848185613c23565b9350613c94818560208601613c34565b613c9d81613c5e565b840191505092915050565b60006020820190508181036000830152613cc28184613c6f565b905092915050565b6000819050919050565b613cdd81613cca565b8114613ce857600080fd5b50565b600081359050613cfa81613cd4565b92915050565b600060208284031215613d1657613d15613b53565b5b6000613d2484828501613ceb565b91505092915050565b600073ffffffffffffffffffffffffffffffffffffffff82169050919050565b6000613d5882613d2d565b9050919050565b613d6881613d4d565b82525050565b6000602082019050613d836000830184613d5f565b92915050565b613d9281613d4d565b8114613d9d57600080fd5b50565b600081359050613daf81613d89565b92915050565b60008060408385031215613dcc57613dcb613b53565b5b6000613dda85828601613da0565b9250506020613deb85828601613ceb565b9150509250929050565b600080fd5b600080fd5b7f4e487b7100000000000000000000000000000000000000000000000000000000600052604160045260246000fd5b613e3782613c5e565b810181811067ffffffffffffffff82111715613e5657613e55613dff565b5b80604052505050565b6000613e69613b49565b9050613e758282613e2e565b919050565b600067ffffffffffffffff821115613e9557613e94613dff565b5b613e9e82613c5e565b9050602081019050919050565b82818337600083830152505050565b6000613ecd613ec884613e7a565b613e5f565b905082815260208101848484011115613ee957613ee8613dfa565b5b613ef4848285613eab565b509392505050565b600082601f830112613f1157613f10613df5565b5b8135613f21848260208601613eba565b91505092915050565b60008060408385031215613f4157613f40613b53565b5b6000613f4f85828601613ceb565b925050602083013567ffffffffffffffff811115613f7057613f6f613b58565b5b613f7c85828601613efc565b9150509250929050565b613f8f81613cca565b82525050565b6000602082019050613faa6000830184613f86565b92915050565b600060208284031215613fc657613fc5613b53565b5b600082013567ffffffffffffffff811115613fe457613fe3613b58565b5b613ff084828501613efc565b91505092915050565b60008060006060848603121561401257614011613b53565b5b600061402086828701613da0565b935050602061403186828701613da0565b925050604061404286828701613ceb565b9150509250925092565b600060a0820190506140616000830188613d5f565b61406e6020830187613f86565b61407b6040830186613f86565b6140886060830185613f86565b818103608083015261409a8184613c6f565b90509695505050505050565b6000602082840312156140bc576140bb613b53565b5b60006140ca84828501613da0565b91505092915050565b600060a08201905081810360008301526140ed8188613c6f565b90506140fc6020830187613f86565b6141096040830186613f86565b6141166060830185613f86565b81810360808301526141288184613c6f565b90509695505050505050565b61413d81613be2565b811461414857600080fd5b50565b60008135905061415a81614134565b92915050565b6000806040838503121561417757614176613b53565b5b600061418585828601613da0565b92505060206141968582860161414b565b9150509250929050565b600080604083850312156141b7576141b6613b53565b5b600083013567ffffffffffffffff8111156141d5576141d4613b58565b5b6141e185828601613efc565b92505060206141f285828601613ceb565b9150509250929050565b600067ffffffffffffffff82111561421757614216613dff565b5b61422082613c5e565b9050602081019050919050565b600061424061423b846141fc565b613e5f565b90508281526020810184848401111561425c5761425b613dfa565b5b614267848285613eab565b509392505050565b600082601f83011261428457614283613df5565b5b813561429484826020860161422d565b91505092915050565b600080600080608085870312156142b7576142b6613b53565b5b60006142c587828801613da0565b94505060206142d687828801613da0565b93505060406142e787828801613ceb565b925050606085013567ffffffffffffffff81111561430857614307613b58565b5b6143148782880161426f565b91505092959194509250565b600081519050919050565b600082825260208201905092915050565b6000819050602082019050919050565b61435581613d4d565b82525050565b6000614367838361434c565b60208301905092915050565b6000602082019050919050565b600061438b82614320565b614395818561432b565b93506143a08361433c565b8060005b838110156143d15781516143b8888261435b565b97506143c383614373565b9250506001810190506143a4565b5085935050505092915050565b600060208201905081810360008301526143f88184614380565b905092915050565b6000806040838503121561441757614416613b53565b5b600061442585828601613da0565b925050602061443685828601613da0565b9150509250929050565b6000806040838503121561445757614456613b53565b5b600083013567ffffffffffffffff81111561447557614474613b58565b5b61448185828601613efc565b925050602083013567ffffffffffffffff8111156144a2576144a1613b58565b5b6144ae85828601613efc565b9150509250929050565b7f4e487b7100000000000000000000000000000000000000000000000000000000600052602260045260246000fd5b600060028204905060018216806144ff57607f821691505b602082108103614512576145116144b8565b5b50919050565b7f4552433732313a20617070726f76616c20746f2063757272656e74206f776e6560008201527f7200000000000000000000000000000000000000000000000000000000000000602082015250565b6000614574602183613c23565b915061457f82614518565b604082019050919050565b600060208201905081810360008301526145a381614567565b9050919050565b7f4552433732313a20617070726f76652063616c6c6572206973206e6f7420746f60008201527f6b656e206f776e6572206f7220617070726f76656420666f7220616c6c000000602082015250565b6000614606603d83613c23565b9150614611826145aa565b604082019050919050565b60006020820190508181036000830152614635816145f9565b9050919050565b7f546f6b656e20646f6573206e6f74206578697374000000000000000000000000600082015250565b6000614672601483613c23565b915061467d8261463c565b602082019050919050565b600060208201905081810360008301526146a181614665565b9050919050565b60008190508160005260206000209050919050565b60006020601f8301049050919050565b600082821b905092915050565b60006008830261470a7fffffffffffffffffffffffffffffffffffffffffffffffffffffffffffffffff826146cd565b61471486836146cd565b95508019841693508086168417925050509392505050565b6000819050919050565b600061475161474c61474784613cca565b61472c565b613cca565b9050919050565b6000819050919050565b61476b83614736565b61477f61477782614758565b8484546146da565b825550505050565b600090565b614794614787565b61479f818484614762565b505050565b5b818110156147c3576147b860008261478c565b6001810190506147a5565b5050565b601f821115614808576147d9816146a8565b6147e2846146bd565b810160208510156147f1578190505b6148056147fd856146bd565b8301826147a4565b50505b505050565b600082821c905092915050565b600061482b6000198460080261480d565b1980831691505092915050565b6000614844838361481a565b9150826002028217905092915050565b61485d82613c18565b67ffffffffffffffff81111561487657614875613dff565b5b61488082546144e7565b61488b8282856147c7565b600060209050601f8311600181146148be57600084156148ac578287015190505b6148b68582614838565b86555061491e565b601f1984166148cc866146a8565b60005b828110156148f4578489015182556001820191506020850194506020810190506148cf565b86831015614911578489015161490d601f89168261481a565b8355505b6001600288020188555050505b505050505050565b7f4552433732313a2063616c6c6572206973206e6f7420746f6b656e206f776e6560008201527f72206f7220617070726f76656400000000000000000000000000000000000000602082015250565b6000614982602d83613c23565b915061498d82614926565b604082019050919050565b600060208201905081810360008301526149b181614975565b9050919050565b7f4f6e6c7920746865206f776e65722063616e207472616e736665720000000000600082015250565b60006149ee601b83613c23565b91506149f9826149b8565b602082019050919050565b60006020820190508181036000830152614a1d816149e1565b9050919050565b600081905092915050565b6000614a3a82613c18565b614a448185614a24565b9350614a54818560208601613c34565b80840191505092915050565b6000614a6c8284614a2f565b915081905092915050565b7f4e616d65206973206e6f74207265676973746572656400000000000000000000600082015250565b6000614aad601683613c23565b9150614ab882614a77565b602082019050919050565b60006020820190508181036000830152614adc81614aa0565b9050919050565b7f455243373231456e756d657261626c653a206f776e657220696e646578206f7560008201527f74206f6620626f756e6473000000000000000000000000000000000000000000602082015250565b6000614b3f602b83613c23565b9150614b4a82614ae3565b604082019050919050565b60006020820190508181036000830152614b6e81614b32565b9050919050565b7f455243373231456e756d657261626c653a20676c6f62616c20696e646578206f60008201527f7574206f6620626f756e64730000000000000000000000000000000000000000602082015250565b6000614bd1602c83613c23565b9150614bdc82614b75565b604082019050919050565b60006020820190508181036000830152614c0081614bc4565b9050919050565b7f4e487b7100000000000000000000000000000000000000000000000000000000600052603260045260246000fd5b60008154614c43816144e7565b614c4d8186614a24565b94506001821660008114614c685760018114614c7d57614cb0565b60ff1983168652811515820286019350614cb0565b614c86856146a8565b60005b83811015614ca857815481890152600182019150602081019050614c89565b838801955050505b50505092915050565b6000614cc58285614a2f565b9150614cd18284614c36565b91508190509392505050565b7f4e487b7100000000000000000000000000000000000000000000000000000000600052601160045260246000fd5b6000614d1782613cca565b91507fffffffffffffffffffffffffffffffffffffffffffffffffffffffffffffffff8203614d4957614d48614cdd565b5b600182019050919050565b7f4552433732313a20696e76616c696420746f6b656e2049440000000000000000600082015250565b6000614d8a601883613c23565b9150614d9582614d54565b602082019050919050565b60006020820190508181036000830152614db981614d7d565b9050919050565b7f4552433732313a2061646472657373207a65726f206973206e6f74206120766160008201527f6c6964206f776e65720000000000000000000000000000000000000000000000602082015250565b6000614e1c602983613c23565b9150614e2782614dc0565b604082019050919050565b60006020820190508181036000830152614e4b81614e0f565b9050919050565b7f4f6e6c7920746865206f776e65722063616e20657874656e642064757261746960008201527f6f6e000000000000000000000000000000000000000000000000000000000000602082015250565b6000614eae602283613c23565b9150614eb982614e52565b604082019050919050565b60006020820190508181036000830152614edd81614ea1565b9050919050565b7f457874656e73696f6e206475726174696f6e206d75737420626520677265617460008201527f6572207468616e20300000000000000000000000000000000000000000000000602082015250565b6000614f40602983613c23565b9150614f4b82614ee4565b604082019050919050565b60006020820190508181036000830152614f6f81614f33565b9050919050565b7f496e73756666696369656e742066756e64732073656e74000000000000000000600082015250565b6000614fac601783613c23565b9150614fb782614f76565b602082019050919050565b60006020820190508181036000830152614fdb81614f9f565b9050919050565b6000614fed82613cca565b9150614ff883613cca565b925082820261500681613cca565b9150828204841483151761501d5761501c614cdd565b5b5092915050565b600061502f82613cca565b915061503a83613cca565b925082820190508082111561505257615051614cdd565b5b92915050565b600060408201905081810360008301526150728185613c6f565b90506150816020830184613f86565b9392505050565b7f496e76616c6964206e616d6520666f726d617400000000000000000000000000600082015250565b60006150be601383613c23565b91506150c982615088565b602082019050919050565b600060208201905081810360008301526150ed816150b1565b9050919050565b60006150ff82613cca565b915061510a83613cca565b925082820390508181111561512257615121614cdd565b5b92915050565b7f4e616d65206d7573742068617665206d6f7265207468616e203220636861726160008201527f6374657273000000000000000000000000000000000000000000000000000000602082015250565b6000615184602583613c23565b915061518f82615128565b604082019050919050565b600060208201905081810360008301526151b381615177565b9050919050565b7f4f776e61626c653a206e6577206f776e657220697320746865207a65726f206160008201527f6464726573730000000000000000000000000000000000000000000000000000602082015250565b6000615216602683613c23565b9150615221826151ba565b604082019050919050565b6000602082019050818103600083015261524581615209565b9050919050565b7f4e616d6520697320616c72656164792072656769737465726564000000000000600082015250565b6000615282601a83613c23565b915061528d8261524c565b602082019050919050565b600060208201905081810360008301526152b181615275565b9050919050565b7f4164647265737320697320616c7265616479207265676973746572656420776960008201527f74682061206e616d650000000000000000000000000000000000000000000000602082015250565b6000615314602983613c23565b915061531f826152b8565b604082019050919050565b6000602082019050818103600083015261534381615307565b9050919050565b7f4f776e61626c653a2063616c6c6572206973206e6f7420746865206f776e6572600082015250565b6000615380602083613c23565b915061538b8261534a565b602082019050919050565b600060208201905081810360008301526153af81615373565b9050919050565b7f4552433732313a207472616e736665722066726f6d20696e636f72726563742060008201527f6f776e6572000000000000000000000000000000000000000000000000000000602082015250565b6000615412602583613c23565b915061541d826153b6565b604082019050919050565b6000602082019050818103600083015261544181615405565b9050919050565b7f4552433732313a207472616e7366657220746f20746865207a65726f2061646460008201527f7265737300000000000000000000000000000000000000000000000000000000602082015250565b60006154a4602483613c23565b91506154af82615448565b604082019050919050565b600060208201905081810360008301526154d381615497565b9050919050565b7f4552433732313a20617070726f766520746f2063616c6c657200000000000000600082015250565b6000615510601983613c23565b915061551b826154da565b602082019050919050565b6000602082019050818103600083015261553f81615503565b9050919050565b7f4552433732313a207472616e7366657220746f206e6f6e20455243373231526560008201527f63656976657220696d706c656d656e7465720000000000000000000000000000602082015250565b60006155a2603283613c23565b91506155ad82615546565b604082019050919050565b600060208201905081810360008301526155d181615595565b9050919050565b7f496e76616c696420737562737472696e672072616e6765000000000000000000600082015250565b600061560e601783613c23565b9150615619826155d8565b602082019050919050565b6000602082019050818103600083015261563d81615601565b9050919050565b7f4e487b7100000000000000000000000000000000000000000000000000000000600052601260045260246000fd5b600061567e82613cca565b915061568983613cca565b92508261569957615698615644565b5b828204905092915050565b7f4552433732313a206d696e7420746f20746865207a65726f2061646472657373600082015250565b60006156da602083613c23565b91506156e5826156a4565b602082019050919050565b60006020820190508181036000830152615709816156cd565b9050919050565b7f4552433732313a20746f6b656e20616c7265616479206d696e74656400000000600082015250565b6000615746601c83613c23565b915061575182615710565b602082019050919050565b6000602082019050818103600083015261577581615739565b9050919050565b7f455243373231456e756d657261626c653a20636f6e736563757469766520747260008201527f616e7366657273206e6f7420737570706f727465640000000000000000000000602082015250565b60006157d8603583613c23565b91506157e38261577c565b604082019050919050565b60006020820190508181036000830152615807816157cb565b9050919050565b600081519050919050565b600082825260208201905092915050565b60006158358261580e565b61583f8185615819565b935061584f818560208601613c34565b61585881613c5e565b840191505092915050565b60006080820190506158786000830187613d5f565b6158856020830186613d5f565b6158926040830185613f86565b81810360608301526158a4818461582a565b905095945050505050565b6000815190506158be81613b89565b92915050565b6000602082840312156158da576158d9613b53565b5b60006158e8848285016158af565b91505092915050565b7f4e487b7100000000000000000000000000000000000000000000000000000000600052603160045260246000fdfea264697066735822122054968b3a9c484616f12ffb63507d47e1e347222a0940c0c3fd7557a4325072c264736f6c63430008130033",
  "linkReferences": {},
  "deployedLinkReferences": {}
}